{
  "_format": "hh3-artifact-1",
  "contractName": "UserAccounts",
  "sourceName": "contracts/UserAccounts.sol",
  "abi": [
    {
      "anonymous": false,
      "inputs": [
        {
          "indexed": false,
          "internalType": "string",
          "name": "id",
          "type": "string"
        },
        {
          "indexed": false,
          "internalType": "string",
          "name": "companyId",
          "type": "string"
        },
        {
          "indexed": false,
          "internalType": "string",
          "name": "name",
          "type": "string"
        },
        {
          "indexed": false,
          "internalType": "string",
          "name": "homeAddress",
          "type": "string"
        },
        {
          "indexed": false,
          "internalType": "string",
          "name": "district",
          "type": "string"
        },
        {
          "indexed": false,
          "internalType": "string",
          "name": "contactNumber",
          "type": "string"
        }
      ],
      "name": "AnimalFoodRegistered",
      "type": "event"
    },
    {
      "anonymous": false,
      "inputs": [
        {
          "indexed": false,
          "internalType": "string",
          "name": "id",
          "type": "string"
        },
        {
          "indexed": false,
          "internalType": "string",
          "name": "companyId",
          "type": "string"
        },
        {
          "indexed": false,
          "internalType": "string",
          "name": "name",
          "type": "string"
        },
        {
          "indexed": false,
          "internalType": "string",
          "name": "homeAddress",
          "type": "string"
        },
        {
          "indexed": false,
          "internalType": "string",
          "name": "district",
          "type": "string"
        },
        {
          "indexed": false,
          "internalType": "string",
          "name": "contactNumber",
          "type": "string"
        }
      ],
      "name": "AnimalFoodUpdated",
      "type": "event"
    },
    {
      "anonymous": false,
      "inputs": [
        {
          "indexed": false,
          "internalType": "string",
          "name": "id",
          "type": "string"
        },
        {
          "indexed": false,
          "internalType": "string",
          "name": "companyId",
          "type": "string"
        },
        {
          "indexed": false,
          "internalType": "string",
          "name": "name",
          "type": "string"
        },
        {
          "indexed": false,
          "internalType": "string",
          "name": "homeAddress",
          "type": "string"
        },
        {
          "indexed": false,
          "internalType": "string",
          "name": "district",
          "type": "string"
        },
        {
          "indexed": false,
          "internalType": "string",
          "name": "contactNumber",
          "type": "string"
        }
      ],
      "name": "BrewerRegistered",
      "type": "event"
    },
    {
      "anonymous": false,
      "inputs": [
        {
          "indexed": false,
          "internalType": "string",
          "name": "id",
          "type": "string"
        },
        {
          "indexed": false,
          "internalType": "string",
          "name": "companyId",
          "type": "string"
        },
        {
          "indexed": false,
          "internalType": "string",
          "name": "name",
          "type": "string"
        },
        {
          "indexed": false,
          "internalType": "string",
          "name": "homeAddress",
          "type": "string"
        },
        {
          "indexed": false,
          "internalType": "string",
          "name": "district",
          "type": "string"
        },
        {
          "indexed": false,
          "internalType": "string",
          "name": "contactNumber",
          "type": "string"
        }
      ],
      "name": "BrewerUpdated",
      "type": "event"
    },
    {
      "anonymous": false,
      "inputs": [
        {
          "indexed": false,
          "internalType": "string",
          "name": "id",
          "type": "string"
        },
        {
          "indexed": false,
          "internalType": "string",
          "name": "fullName",
          "type": "string"
        },
        {
          "indexed": false,
          "internalType": "string",
          "name": "district",
          "type": "string"
        }
      ],
      "name": "CollectorRegistered",
      "type": "event"
    },
    {
      "anonymous": false,
      "inputs": [
        {
          "indexed": false,
          "internalType": "string",
          "name": "id",
          "type": "string"
        },
        {
          "indexed": false,
          "internalType": "string",
          "name": "fullName",
          "type": "string"
        },
        {
          "indexed": false,
          "internalType": "string",
          "name": "district",
          "type": "string"
        }
      ],
      "name": "CollectorUpdated",
      "type": "event"
    },
    {
      "anonymous": false,
      "inputs": [
        {
          "indexed": false,
          "internalType": "string",
          "name": "id",
          "type": "string"
        },
        {
          "indexed": false,
          "internalType": "string",
          "name": "companyId",
          "type": "string"
        },
        {
          "indexed": false,
          "internalType": "string",
          "name": "name",
          "type": "string"
        },
        {
          "indexed": false,
          "internalType": "string",
          "name": "homeAddress",
          "type": "string"
        },
        {
          "indexed": false,
          "internalType": "string",
          "name": "district",
          "type": "string"
        },
        {
          "indexed": false,
          "internalType": "string",
          "name": "contactNumber",
          "type": "string"
        }
      ],
      "name": "ExporterRegistered",
      "type": "event"
    },
    {
      "anonymous": false,
      "inputs": [
        {
          "indexed": false,
          "internalType": "string",
          "name": "id",
          "type": "string"
        },
        {
          "indexed": false,
          "internalType": "string",
          "name": "companyId",
          "type": "string"
        },
        {
          "indexed": false,
          "internalType": "string",
          "name": "name",
          "type": "string"
        },
        {
          "indexed": false,
          "internalType": "string",
          "name": "homeAddress",
          "type": "string"
        },
        {
          "indexed": false,
          "internalType": "string",
          "name": "district",
          "type": "string"
        },
        {
          "indexed": false,
          "internalType": "string",
          "name": "contactNumber",
          "type": "string"
        }
      ],
      "name": "ExporterUpdated",
      "type": "event"
    },
    {
      "anonymous": false,
      "inputs": [
        {
          "indexed": false,
          "internalType": "string",
          "name": "id",
          "type": "string"
        },
        {
          "indexed": false,
          "internalType": "string",
          "name": "fullName",
          "type": "string"
        },
        {
          "indexed": false,
          "internalType": "string",
          "name": "district",
          "type": "string"
        },
        {
          "indexed": false,
          "internalType": "uint256",
          "name": "totalPaddyFieldArea",
          "type": "uint256"
        }
      ],
      "name": "FarmerRegistered",
      "type": "event"
    },
    {
      "anonymous": false,
      "inputs": [
        {
          "indexed": false,
          "internalType": "string",
          "name": "id",
          "type": "string"
        },
        {
          "indexed": false,
          "internalType": "string",
          "name": "fullName",
          "type": "string"
        },
        {
          "indexed": false,
          "internalType": "string",
          "name": "district",
          "type": "string"
        },
        {
          "indexed": false,
          "internalType": "uint256",
          "name": "totalPaddyFieldArea",
          "type": "uint256"
        }
      ],
      "name": "FarmerUpdated",
      "type": "event"
    },
    {
      "anonymous": false,
      "inputs": [
        {
          "indexed": false,
          "internalType": "string",
          "name": "id",
          "type": "string"
        },
        {
          "indexed": false,
          "internalType": "string",
          "name": "companyRegisterNumber",
          "type": "string"
        },
        {
          "indexed": false,
          "internalType": "string",
          "name": "companyName",
          "type": "string"
        },
        {
          "indexed": false,
          "internalType": "string",
          "name": "homeAddress",
          "type": "string"
        },
        {
          "indexed": false,
          "internalType": "string",
          "name": "district",
          "type": "string"
        },
        {
          "indexed": false,
          "internalType": "string",
          "name": "contactNumber",
          "type": "string"
        }
      ],
      "name": "MillerRegistered",
      "type": "event"
    },
    {
      "anonymous": false,
      "inputs": [
        {
          "indexed": false,
          "internalType": "string",
          "name": "id",
          "type": "string"
        },
        {
          "indexed": false,
          "internalType": "string",
          "name": "companyRegisterNumber",
          "type": "string"
        },
        {
          "indexed": false,
          "internalType": "string",
          "name": "companyName",
          "type": "string"
        },
        {
          "indexed": false,
          "internalType": "string",
          "name": "homeAddress",
          "type": "string"
        },
        {
          "indexed": false,
          "internalType": "string",
          "name": "district",
          "type": "string"
        },
        {
          "indexed": false,
          "internalType": "string",
          "name": "contactNumber",
          "type": "string"
        }
      ],
      "name": "MillerUpdated",
      "type": "event"
    },
    {
      "anonymous": false,
      "inputs": [
        {
          "indexed": false,
          "internalType": "string",
          "name": "id",
          "type": "string"
        },
        {
          "indexed": false,
          "internalType": "string",
          "name": "name",
          "type": "string"
        },
        {
          "indexed": false,
          "internalType": "string",
          "name": "district",
          "type": "string"
        }
      ],
      "name": "RetailerRegistered",
      "type": "event"
    },
    {
      "anonymous": false,
      "inputs": [
        {
          "indexed": false,
          "internalType": "string",
          "name": "id",
          "type": "string"
        },
        {
          "indexed": false,
          "internalType": "string",
          "name": "name",
          "type": "string"
        },
        {
          "indexed": false,
          "internalType": "string",
          "name": "district",
          "type": "string"
        }
      ],
      "name": "RetailerUpdated",
      "type": "event"
    },
    {
      "anonymous": false,
      "inputs": [
        {
          "indexed": false,
          "internalType": "string",
          "name": "id",
          "type": "string"
        },
        {
          "indexed": false,
          "internalType": "string",
          "name": "companyRegisterNumber",
          "type": "string"
        },
        {
          "indexed": false,
          "internalType": "string",
          "name": "companyName",
          "type": "string"
        },
        {
          "indexed": false,
          "internalType": "string",
          "name": "homeAddress",
          "type": "string"
        },
        {
          "indexed": false,
          "internalType": "string",
          "name": "district",
          "type": "string"
        },
        {
          "indexed": false,
          "internalType": "string",
          "name": "contactNumber",
          "type": "string"
        }
      ],
      "name": "WholesalerRegistered",
      "type": "event"
    },
    {
      "anonymous": false,
      "inputs": [
        {
          "indexed": false,
          "internalType": "string",
          "name": "id",
          "type": "string"
        },
        {
          "indexed": false,
          "internalType": "string",
          "name": "companyRegisterNumber",
          "type": "string"
        },
        {
          "indexed": false,
          "internalType": "string",
          "name": "companyName",
          "type": "string"
        },
        {
          "indexed": false,
          "internalType": "string",
          "name": "homeAddress",
          "type": "string"
        },
        {
          "indexed": false,
          "internalType": "string",
          "name": "district",
          "type": "string"
        },
        {
          "indexed": false,
          "internalType": "string",
          "name": "contactNumber",
          "type": "string"
        }
      ],
      "name": "WholesalerUpdated",
      "type": "event"
    },
    {
      "inputs": [
        {
          "internalType": "uint256",
          "name": "",
          "type": "uint256"
        }
      ],
      "name": "animalFoodIds",
      "outputs": [
        {
          "internalType": "string",
          "name": "",
          "type": "string"
        }
      ],
      "stateMutability": "view",
      "type": "function"
    },
    {
      "inputs": [
        {
          "internalType": "string",
          "name": "",
          "type": "string"
        }
      ],
      "name": "animalFoods",
      "outputs": [
        {
          "internalType": "string",
          "name": "id",
          "type": "string"
        },
        {
          "internalType": "string",
          "name": "companyId",
          "type": "string"
        },
        {
          "internalType": "string",
          "name": "name",
          "type": "string"
        },
        {
          "internalType": "string",
          "name": "homeAddress",
          "type": "string"
        },
        {
          "internalType": "string",
          "name": "district",
          "type": "string"
        },
        {
          "internalType": "string",
          "name": "contactNumber",
          "type": "string"
        }
      ],
      "stateMutability": "view",
      "type": "function"
    },
    {
      "inputs": [
        {
          "internalType": "uint256",
          "name": "",
          "type": "uint256"
        }
      ],
      "name": "brewerIds",
      "outputs": [
        {
          "internalType": "string",
          "name": "",
          "type": "string"
        }
      ],
      "stateMutability": "view",
      "type": "function"
    },
    {
      "inputs": [
        {
          "internalType": "string",
          "name": "",
          "type": "string"
        }
      ],
      "name": "brewers",
      "outputs": [
        {
          "internalType": "string",
          "name": "id",
          "type": "string"
        },
        {
          "internalType": "string",
          "name": "companyId",
          "type": "string"
        },
        {
          "internalType": "string",
          "name": "name",
          "type": "string"
        },
        {
          "internalType": "string",
          "name": "homeAddress",
          "type": "string"
        },
        {
          "internalType": "string",
          "name": "district",
          "type": "string"
        },
        {
          "internalType": "string",
          "name": "contactNumber",
          "type": "string"
        }
      ],
      "stateMutability": "view",
      "type": "function"
    },
    {
      "inputs": [
        {
          "internalType": "uint256",
          "name": "",
          "type": "uint256"
        }
      ],
      "name": "collectorIds",
      "outputs": [
        {
          "internalType": "string",
          "name": "",
          "type": "string"
        }
      ],
      "stateMutability": "view",
      "type": "function"
    },
    {
      "inputs": [
        {
          "internalType": "string",
          "name": "",
          "type": "string"
        }
      ],
      "name": "collectors",
      "outputs": [
        {
          "internalType": "string",
          "name": "id",
          "type": "string"
        },
        {
          "internalType": "string",
          "name": "fullName",
          "type": "string"
        },
        {
          "internalType": "string",
          "name": "district",
          "type": "string"
        }
      ],
      "stateMutability": "view",
      "type": "function"
    },
    {
      "inputs": [
        {
          "internalType": "uint256",
          "name": "",
          "type": "uint256"
        }
      ],
      "name": "exporterIds",
      "outputs": [
        {
          "internalType": "string",
          "name": "",
          "type": "string"
        }
      ],
      "stateMutability": "view",
      "type": "function"
    },
    {
      "inputs": [
        {
          "internalType": "string",
          "name": "",
          "type": "string"
        }
      ],
      "name": "exporters",
      "outputs": [
        {
          "internalType": "string",
          "name": "id",
          "type": "string"
        },
        {
          "internalType": "string",
          "name": "companyId",
          "type": "string"
        },
        {
          "internalType": "string",
          "name": "name",
          "type": "string"
        },
        {
          "internalType": "string",
          "name": "homeAddress",
          "type": "string"
        },
        {
          "internalType": "string",
          "name": "district",
          "type": "string"
        },
        {
          "internalType": "string",
          "name": "contactNumber",
          "type": "string"
        }
      ],
      "stateMutability": "view",
      "type": "function"
    },
    {
      "inputs": [
        {
          "internalType": "uint256",
          "name": "",
          "type": "uint256"
        }
      ],
      "name": "farmerIds",
      "outputs": [
        {
          "internalType": "string",
          "name": "",
          "type": "string"
        }
      ],
      "stateMutability": "view",
      "type": "function"
    },
    {
      "inputs": [
        {
          "internalType": "string",
          "name": "",
          "type": "string"
        }
      ],
      "name": "farmers",
      "outputs": [
        {
          "internalType": "string",
          "name": "id",
          "type": "string"
        },
        {
          "internalType": "string",
          "name": "fullName",
          "type": "string"
        },
        {
          "internalType": "string",
          "name": "district",
          "type": "string"
        },
        {
          "internalType": "uint256",
          "name": "totalPaddyFieldArea",
          "type": "uint256"
        }
      ],
      "stateMutability": "view",
      "type": "function"
    },
    {
      "inputs": [
        {
          "internalType": "string",
          "name": "_id",
          "type": "string"
        }
      ],
      "name": "getAnimalFood",
      "outputs": [
        {
          "components": [
            {
              "internalType": "string",
              "name": "id",
              "type": "string"
            },
            {
              "internalType": "string",
              "name": "companyId",
              "type": "string"
            },
            {
              "internalType": "string",
              "name": "name",
              "type": "string"
            },
            {
              "internalType": "string",
              "name": "homeAddress",
              "type": "string"
            },
            {
              "internalType": "string",
              "name": "district",
              "type": "string"
            },
            {
              "internalType": "string",
              "name": "contactNumber",
              "type": "string"
            }
          ],
          "internalType": "struct UserAccounts.AnimalFood",
          "name": "",
          "type": "tuple"
        }
      ],
      "stateMutability": "view",
      "type": "function"
    },
    {
      "inputs": [],
      "name": "getAnimalFoodCount",
      "outputs": [
        {
          "internalType": "uint256",
          "name": "",
          "type": "uint256"
        }
      ],
      "stateMutability": "view",
      "type": "function"
    },
    {
      "inputs": [
        {
          "internalType": "string",
          "name": "_id",
          "type": "string"
        }
      ],
      "name": "getBrewer",
      "outputs": [
        {
          "components": [
            {
              "internalType": "string",
              "name": "id",
              "type": "string"
            },
            {
              "internalType": "string",
              "name": "companyId",
              "type": "string"
            },
            {
              "internalType": "string",
              "name": "name",
              "type": "string"
            },
            {
              "internalType": "string",
              "name": "homeAddress",
              "type": "string"
            },
            {
              "internalType": "string",
              "name": "district",
              "type": "string"
            },
            {
              "internalType": "string",
              "name": "contactNumber",
              "type": "string"
            }
          ],
          "internalType": "struct UserAccounts.Brewer",
          "name": "",
          "type": "tuple"
        }
      ],
      "stateMutability": "view",
      "type": "function"
    },
    {
      "inputs": [],
      "name": "getBrewerCount",
      "outputs": [
        {
          "internalType": "uint256",
          "name": "",
          "type": "uint256"
        }
      ],
      "stateMutability": "view",
      "type": "function"
    },
    {
      "inputs": [
        {
          "internalType": "string",
          "name": "_id",
          "type": "string"
        }
      ],
      "name": "getCollector",
      "outputs": [
        {
          "components": [
            {
              "internalType": "string",
              "name": "id",
              "type": "string"
            },
            {
              "internalType": "string",
              "name": "fullName",
              "type": "string"
            },
            {
              "internalType": "string",
              "name": "district",
              "type": "string"
            }
          ],
          "internalType": "struct UserAccounts.Collector",
          "name": "",
          "type": "tuple"
        }
      ],
      "stateMutability": "view",
      "type": "function"
    },
    {
      "inputs": [],
      "name": "getCollectorCount",
      "outputs": [
        {
          "internalType": "uint256",
          "name": "",
          "type": "uint256"
        }
      ],
      "stateMutability": "view",
      "type": "function"
    },
    {
      "inputs": [
        {
          "internalType": "string",
          "name": "_id",
          "type": "string"
        }
      ],
      "name": "getExporter",
      "outputs": [
        {
          "components": [
            {
              "internalType": "string",
              "name": "id",
              "type": "string"
            },
            {
              "internalType": "string",
              "name": "companyId",
              "type": "string"
            },
            {
              "internalType": "string",
              "name": "name",
              "type": "string"
            },
            {
              "internalType": "string",
              "name": "homeAddress",
              "type": "string"
            },
            {
              "internalType": "string",
              "name": "district",
              "type": "string"
            },
            {
              "internalType": "string",
              "name": "contactNumber",
              "type": "string"
            }
          ],
          "internalType": "struct UserAccounts.Exporter",
          "name": "",
          "type": "tuple"
        }
      ],
      "stateMutability": "view",
      "type": "function"
    },
    {
      "inputs": [],
      "name": "getExporterCount",
      "outputs": [
        {
          "internalType": "uint256",
          "name": "",
          "type": "uint256"
        }
      ],
      "stateMutability": "view",
      "type": "function"
    },
    {
      "inputs": [
        {
          "internalType": "string",
          "name": "_id",
          "type": "string"
        }
      ],
      "name": "getFarmer",
      "outputs": [
        {
          "components": [
            {
              "internalType": "string",
              "name": "id",
              "type": "string"
            },
            {
              "internalType": "string",
              "name": "fullName",
              "type": "string"
            },
            {
              "internalType": "string",
              "name": "district",
              "type": "string"
            },
            {
              "internalType": "uint256",
              "name": "totalPaddyFieldArea",
              "type": "uint256"
            }
          ],
          "internalType": "struct UserAccounts.Farmer",
          "name": "",
          "type": "tuple"
        }
      ],
      "stateMutability": "view",
      "type": "function"
    },
    {
      "inputs": [],
      "name": "getFarmerCount",
      "outputs": [
        {
          "internalType": "uint256",
          "name": "",
          "type": "uint256"
        }
      ],
      "stateMutability": "view",
      "type": "function"
    },
    {
      "inputs": [
        {
          "internalType": "string",
          "name": "_id",
          "type": "string"
        }
      ],
      "name": "getMiller",
      "outputs": [
        {
          "components": [
            {
              "internalType": "string",
              "name": "id",
              "type": "string"
            },
            {
              "internalType": "string",
              "name": "companyRegisterNumber",
              "type": "string"
            },
            {
              "internalType": "string",
              "name": "companyName",
              "type": "string"
            },
            {
              "internalType": "string",
              "name": "homeAddress",
              "type": "string"
            },
            {
              "internalType": "string",
              "name": "district",
              "type": "string"
            },
            {
              "internalType": "string",
              "name": "contactNumber",
              "type": "string"
            }
          ],
          "internalType": "struct UserAccounts.Miller",
          "name": "",
          "type": "tuple"
        }
      ],
      "stateMutability": "view",
      "type": "function"
    },
    {
      "inputs": [],
      "name": "getMillerCount",
      "outputs": [
        {
          "internalType": "uint256",
          "name": "",
          "type": "uint256"
        }
      ],
      "stateMutability": "view",
      "type": "function"
    },
    {
      "inputs": [
        {
          "internalType": "string",
          "name": "_id",
          "type": "string"
        }
      ],
      "name": "getRetailer",
      "outputs": [
        {
          "components": [
            {
              "internalType": "string",
              "name": "id",
              "type": "string"
            },
            {
              "internalType": "string",
              "name": "name",
              "type": "string"
            },
            {
              "internalType": "string",
              "name": "district",
              "type": "string"
            }
          ],
          "internalType": "struct UserAccounts.Retailer",
          "name": "",
          "type": "tuple"
        }
      ],
      "stateMutability": "view",
      "type": "function"
    },
    {
      "inputs": [],
      "name": "getRetailerCount",
      "outputs": [
        {
          "internalType": "uint256",
          "name": "",
          "type": "uint256"
        }
      ],
      "stateMutability": "view",
      "type": "function"
    },
    {
      "inputs": [
        {
          "internalType": "string",
          "name": "_id",
          "type": "string"
        }
      ],
      "name": "getWholesaler",
      "outputs": [
        {
          "components": [
            {
              "internalType": "string",
              "name": "id",
              "type": "string"
            },
            {
              "internalType": "string",
              "name": "companyRegisterNumber",
              "type": "string"
            },
            {
              "internalType": "string",
              "name": "companyName",
              "type": "string"
            },
            {
              "internalType": "string",
              "name": "homeAddress",
              "type": "string"
            },
            {
              "internalType": "string",
              "name": "district",
              "type": "string"
            },
            {
              "internalType": "string",
              "name": "contactNumber",
              "type": "string"
            }
          ],
          "internalType": "struct UserAccounts.Wholesaler",
          "name": "",
          "type": "tuple"
        }
      ],
      "stateMutability": "view",
      "type": "function"
    },
    {
      "inputs": [],
      "name": "getWholesalerCount",
      "outputs": [
        {
          "internalType": "uint256",
          "name": "",
          "type": "uint256"
        }
      ],
      "stateMutability": "view",
      "type": "function"
    },
    {
      "inputs": [
        {
          "internalType": "uint256",
          "name": "",
          "type": "uint256"
        }
      ],
      "name": "millerIds",
      "outputs": [
        {
          "internalType": "string",
          "name": "",
          "type": "string"
        }
      ],
      "stateMutability": "view",
      "type": "function"
    },
    {
      "inputs": [
        {
          "internalType": "string",
          "name": "",
          "type": "string"
        }
      ],
      "name": "millers",
      "outputs": [
        {
          "internalType": "string",
          "name": "id",
          "type": "string"
        },
        {
          "internalType": "string",
          "name": "companyRegisterNumber",
          "type": "string"
        },
        {
          "internalType": "string",
          "name": "companyName",
          "type": "string"
        },
        {
          "internalType": "string",
          "name": "homeAddress",
          "type": "string"
        },
        {
          "internalType": "string",
          "name": "district",
          "type": "string"
        },
        {
          "internalType": "string",
          "name": "contactNumber",
          "type": "string"
        }
      ],
      "stateMutability": "view",
      "type": "function"
    },
    {
      "inputs": [
        {
          "components": [
            {
              "internalType": "string",
              "name": "id",
              "type": "string"
            },
            {
              "internalType": "string",
              "name": "companyId",
              "type": "string"
            },
            {
              "internalType": "string",
              "name": "name",
              "type": "string"
            },
            {
              "internalType": "string",
              "name": "homeAddress",
              "type": "string"
            },
            {
              "internalType": "string",
              "name": "district",
              "type": "string"
            },
            {
              "internalType": "string",
              "name": "contactNumber",
              "type": "string"
            }
          ],
          "internalType": "struct UserAccounts.AnimalFoodInput",
          "name": "input",
          "type": "tuple"
        }
      ],
      "name": "registerAnimalFood",
      "outputs": [],
      "stateMutability": "nonpayable",
      "type": "function"
    },
    {
      "inputs": [
        {
          "components": [
            {
              "internalType": "string",
              "name": "id",
              "type": "string"
            },
            {
              "internalType": "string",
              "name": "companyId",
              "type": "string"
            },
            {
              "internalType": "string",
              "name": "name",
              "type": "string"
            },
            {
              "internalType": "string",
              "name": "homeAddress",
              "type": "string"
            },
            {
              "internalType": "string",
              "name": "district",
              "type": "string"
            },
            {
              "internalType": "string",
              "name": "contactNumber",
              "type": "string"
            }
          ],
          "internalType": "struct UserAccounts.BrewerInput",
          "name": "input",
          "type": "tuple"
        }
      ],
      "name": "registerBrewer",
      "outputs": [],
      "stateMutability": "nonpayable",
      "type": "function"
    },
    {
      "inputs": [
        {
          "components": [
            {
              "internalType": "string",
              "name": "id",
              "type": "string"
            },
            {
              "internalType": "string",
              "name": "fullName",
              "type": "string"
            },
            {
              "internalType": "string",
              "name": "district",
              "type": "string"
            }
          ],
          "internalType": "struct UserAccounts.CollectorInput",
          "name": "input",
          "type": "tuple"
        }
      ],
      "name": "registerCollector",
      "outputs": [],
      "stateMutability": "nonpayable",
      "type": "function"
    },
    {
      "inputs": [
        {
          "components": [
            {
              "internalType": "string",
              "name": "id",
              "type": "string"
            },
            {
              "internalType": "string",
              "name": "companyId",
              "type": "string"
            },
            {
              "internalType": "string",
              "name": "name",
              "type": "string"
            },
            {
              "internalType": "string",
              "name": "homeAddress",
              "type": "string"
            },
            {
              "internalType": "string",
              "name": "district",
              "type": "string"
            },
            {
              "internalType": "string",
              "name": "contactNumber",
              "type": "string"
            }
          ],
          "internalType": "struct UserAccounts.ExporterInput",
          "name": "input",
          "type": "tuple"
        }
      ],
      "name": "registerExporter",
      "outputs": [],
      "stateMutability": "nonpayable",
      "type": "function"
    },
    {
      "inputs": [
        {
          "components": [
            {
              "internalType": "string",
              "name": "id",
              "type": "string"
            },
            {
              "internalType": "string",
              "name": "fullName",
              "type": "string"
            },
            {
              "internalType": "string",
              "name": "district",
              "type": "string"
            },
            {
              "internalType": "uint256",
              "name": "totalPaddyFieldArea",
              "type": "uint256"
            }
          ],
          "internalType": "struct UserAccounts.FarmerInput",
          "name": "input",
          "type": "tuple"
        }
      ],
      "name": "registerFarmer",
      "outputs": [],
      "stateMutability": "nonpayable",
      "type": "function"
    },
    {
      "inputs": [
        {
          "components": [
            {
              "internalType": "string",
              "name": "id",
              "type": "string"
            },
            {
              "internalType": "string",
              "name": "companyRegisterNumber",
              "type": "string"
            },
            {
              "internalType": "string",
              "name": "companyName",
              "type": "string"
            },
            {
              "internalType": "string",
              "name": "homeAddress",
              "type": "string"
            },
            {
              "internalType": "string",
              "name": "district",
              "type": "string"
            },
            {
              "internalType": "string",
              "name": "contactNumber",
              "type": "string"
            }
          ],
          "internalType": "struct UserAccounts.MillerInput",
          "name": "input",
          "type": "tuple"
        }
      ],
      "name": "registerMiller",
      "outputs": [],
      "stateMutability": "nonpayable",
      "type": "function"
    },
    {
      "inputs": [
        {
          "components": [
            {
              "internalType": "string",
              "name": "id",
              "type": "string"
            },
            {
              "internalType": "string",
              "name": "name",
              "type": "string"
            },
            {
              "internalType": "string",
              "name": "district",
              "type": "string"
            }
          ],
          "internalType": "struct UserAccounts.RetailerInput",
          "name": "input",
          "type": "tuple"
        }
      ],
      "name": "registerRetailer",
      "outputs": [],
      "stateMutability": "nonpayable",
      "type": "function"
    },
    {
      "inputs": [
        {
          "components": [
            {
              "internalType": "string",
              "name": "id",
              "type": "string"
            },
            {
              "internalType": "string",
              "name": "companyRegisterNumber",
              "type": "string"
            },
            {
              "internalType": "string",
              "name": "companyName",
              "type": "string"
            },
            {
              "internalType": "string",
              "name": "homeAddress",
              "type": "string"
            },
            {
              "internalType": "string",
              "name": "district",
              "type": "string"
            },
            {
              "internalType": "string",
              "name": "contactNumber",
              "type": "string"
            }
          ],
          "internalType": "struct UserAccounts.WholesalerInput",
          "name": "input",
          "type": "tuple"
        }
      ],
      "name": "registerWholesaler",
      "outputs": [],
      "stateMutability": "nonpayable",
      "type": "function"
    },
    {
      "inputs": [
        {
          "internalType": "uint256",
          "name": "",
          "type": "uint256"
        }
      ],
      "name": "retailerIds",
      "outputs": [
        {
          "internalType": "string",
          "name": "",
          "type": "string"
        }
      ],
      "stateMutability": "view",
      "type": "function"
    },
    {
      "inputs": [
        {
          "internalType": "string",
          "name": "",
          "type": "string"
        }
      ],
      "name": "retailers",
      "outputs": [
        {
          "internalType": "string",
          "name": "id",
          "type": "string"
        },
        {
          "internalType": "string",
          "name": "name",
          "type": "string"
        },
        {
          "internalType": "string",
          "name": "district",
          "type": "string"
        }
      ],
      "stateMutability": "view",
      "type": "function"
    },
    {
      "inputs": [
        {
          "components": [
            {
              "internalType": "string",
              "name": "id",
              "type": "string"
            },
            {
              "internalType": "string",
              "name": "companyId",
              "type": "string"
            },
            {
              "internalType": "string",
              "name": "name",
              "type": "string"
            },
            {
              "internalType": "string",
              "name": "homeAddress",
              "type": "string"
            },
            {
              "internalType": "string",
              "name": "district",
              "type": "string"
            },
            {
              "internalType": "string",
              "name": "contactNumber",
              "type": "string"
            }
          ],
          "internalType": "struct UserAccounts.AnimalFoodInput",
          "name": "input",
          "type": "tuple"
        }
      ],
      "name": "updateAnimalFood",
      "outputs": [],
      "stateMutability": "nonpayable",
      "type": "function"
    },
    {
      "inputs": [
        {
          "components": [
            {
              "internalType": "string",
              "name": "id",
              "type": "string"
            },
            {
              "internalType": "string",
              "name": "companyId",
              "type": "string"
            },
            {
              "internalType": "string",
              "name": "name",
              "type": "string"
            },
            {
              "internalType": "string",
              "name": "homeAddress",
              "type": "string"
            },
            {
              "internalType": "string",
              "name": "district",
              "type": "string"
            },
            {
              "internalType": "string",
              "name": "contactNumber",
              "type": "string"
            }
          ],
          "internalType": "struct UserAccounts.BrewerInput",
          "name": "input",
          "type": "tuple"
        }
      ],
      "name": "updateBrewer",
      "outputs": [],
      "stateMutability": "nonpayable",
      "type": "function"
    },
    {
      "inputs": [
        {
          "components": [
            {
              "internalType": "string",
              "name": "id",
              "type": "string"
            },
            {
              "internalType": "string",
              "name": "fullName",
              "type": "string"
            },
            {
              "internalType": "string",
              "name": "district",
              "type": "string"
            }
          ],
          "internalType": "struct UserAccounts.CollectorInput",
          "name": "input",
          "type": "tuple"
        }
      ],
      "name": "updateCollector",
      "outputs": [],
      "stateMutability": "nonpayable",
      "type": "function"
    },
    {
      "inputs": [
        {
          "components": [
            {
              "internalType": "string",
              "name": "id",
              "type": "string"
            },
            {
              "internalType": "string",
              "name": "companyId",
              "type": "string"
            },
            {
              "internalType": "string",
              "name": "name",
              "type": "string"
            },
            {
              "internalType": "string",
              "name": "homeAddress",
              "type": "string"
            },
            {
              "internalType": "string",
              "name": "district",
              "type": "string"
            },
            {
              "internalType": "string",
              "name": "contactNumber",
              "type": "string"
            }
          ],
          "internalType": "struct UserAccounts.ExporterInput",
          "name": "input",
          "type": "tuple"
        }
      ],
      "name": "updateExporter",
      "outputs": [],
      "stateMutability": "nonpayable",
      "type": "function"
    },
    {
      "inputs": [
        {
          "components": [
            {
              "internalType": "string",
              "name": "id",
              "type": "string"
            },
            {
              "internalType": "string",
              "name": "fullName",
              "type": "string"
            },
            {
              "internalType": "string",
              "name": "district",
              "type": "string"
            },
            {
              "internalType": "uint256",
              "name": "totalPaddyFieldArea",
              "type": "uint256"
            }
          ],
          "internalType": "struct UserAccounts.FarmerInput",
          "name": "input",
          "type": "tuple"
        }
      ],
      "name": "updateFarmer",
      "outputs": [],
      "stateMutability": "nonpayable",
      "type": "function"
    },
    {
      "inputs": [
        {
          "components": [
            {
              "internalType": "string",
              "name": "id",
              "type": "string"
            },
            {
              "internalType": "string",
              "name": "companyRegisterNumber",
              "type": "string"
            },
            {
              "internalType": "string",
              "name": "companyName",
              "type": "string"
            },
            {
              "internalType": "string",
              "name": "homeAddress",
              "type": "string"
            },
            {
              "internalType": "string",
              "name": "district",
              "type": "string"
            },
            {
              "internalType": "string",
              "name": "contactNumber",
              "type": "string"
            }
          ],
          "internalType": "struct UserAccounts.MillerInput",
          "name": "input",
          "type": "tuple"
        }
      ],
      "name": "updateMiller",
      "outputs": [],
      "stateMutability": "nonpayable",
      "type": "function"
    },
    {
      "inputs": [
        {
          "components": [
            {
              "internalType": "string",
              "name": "id",
              "type": "string"
            },
            {
              "internalType": "string",
              "name": "name",
              "type": "string"
            },
            {
              "internalType": "string",
              "name": "district",
              "type": "string"
            }
          ],
          "internalType": "struct UserAccounts.RetailerInput",
          "name": "input",
          "type": "tuple"
        }
      ],
      "name": "updateRetailer",
      "outputs": [],
      "stateMutability": "nonpayable",
      "type": "function"
    },
    {
      "inputs": [
        {
          "components": [
            {
              "internalType": "string",
              "name": "id",
              "type": "string"
            },
            {
              "internalType": "string",
              "name": "companyRegisterNumber",
              "type": "string"
            },
            {
              "internalType": "string",
              "name": "companyName",
              "type": "string"
            },
            {
              "internalType": "string",
              "name": "homeAddress",
              "type": "string"
            },
            {
              "internalType": "string",
              "name": "district",
              "type": "string"
            },
            {
              "internalType": "string",
              "name": "contactNumber",
              "type": "string"
            }
          ],
          "internalType": "struct UserAccounts.WholesalerInput",
          "name": "input",
          "type": "tuple"
        }
      ],
      "name": "updateWholesaler",
      "outputs": [],
      "stateMutability": "nonpayable",
      "type": "function"
    },
    {
      "inputs": [
        {
          "internalType": "uint256",
          "name": "",
          "type": "uint256"
        }
      ],
      "name": "wholesalerIds",
      "outputs": [
        {
          "internalType": "string",
          "name": "",
          "type": "string"
        }
      ],
      "stateMutability": "view",
      "type": "function"
    },
    {
      "inputs": [
        {
          "internalType": "string",
          "name": "",
          "type": "string"
        }
      ],
      "name": "wholesalers",
      "outputs": [
        {
          "internalType": "string",
          "name": "id",
          "type": "string"
        },
        {
          "internalType": "string",
          "name": "companyRegisterNumber",
          "type": "string"
        },
        {
          "internalType": "string",
          "name": "companyName",
          "type": "string"
        },
        {
          "internalType": "string",
          "name": "homeAddress",
          "type": "string"
        },
        {
          "internalType": "string",
          "name": "district",
          "type": "string"
        },
        {
          "internalType": "string",
          "name": "contactNumber",
          "type": "string"
        }
      ],
      "stateMutability": "view",
      "type": "function"
    }
  ],
  "bytecode": "0x60808060405234601557614021908161001a8239f35b5f80fdfe60806040526004361015610011575f80fd5b5f3560e01c8063043a527f14613028578063054f368b1461300b57806307d33ecb14612d5a578063096824d314612d3d5780630e1c0f6314612a8c5780630e60a7ba146128e257806319656291146126315780631a5fde09146125d75780631b6f25f2146125a55780631c257610146123c7578063255599d9146123aa578063258c405a146123505780632b4a55451461231e578063331a79101461206d5780633a068d651461203b578063485a07cc14611fdb5780634a3d42ba14611f815780634ef0512114611f27578063501a247214611f0a57806353777bfd14611ed85780635cda317214611e4457806364d8089214611c875780636966af9714611c2d5780637013053214611bcd578063707c74cb14611a1057806371404bcb146116ef57806374a13d6d1461168f5780637689048d1461163557806377f2fc62146115dc578063992d8df814611528578063994cac901461150b5780639a39aa94146114ab5780639a6041361461148e5780639d4084ad146113885780639ddb784914611328578063ad9c54701461116b578063b151494214611067578063ba3a2d981461104a578063bbf1ad2714611018578063bd3966f814610fa4578063c1240d0914610b24578063c4a8b5d514610b07578063d420130b14610734578063db3cae7f146106b4578063dd03f3b51461061f578063df4f2b6014610462578063f6fee1f5146102a55763fffc25de14610229575f80fd5b346102a15761029d610289602061023f36613392565b9190610249613e90565b5061027161026a604051858482378481878101600481520301902054613097565b1515613ee7565b82604051938492833781016004815203019020613eaf565b60405191829160208352602083019061345f565b0390f35b5f80fd5b346102a1576102b336613205565b6102bd81806134d1565b90816040519283928337810160028152036020019020546102dd90613097565b15156102e890613cda565b6102f281806134d1565b826020819394019161030483836134d1565b929091604082019661031688846134d1565b959094606085019661032888876134d1565b60808801986103378a8a6134d1565b94909560a08b019a8b610349916134d1565b9890996040519b6103598d6130cf565b36906103649261326b565b8b5236906103719261326b565b60208a015236906103819261326b565b604088015236906103919261326b565b606086015236906103a19261326b565b608084015236906103b19261326b565b60a08201526103c086806134d1565b90816040519283928337810160028152036020019020906103e091613552565b6103ea85806134d1565b9590946103f790826134d1565b93909761040490836134d1565b91909561041190846134d1565b92909161041e90856134d1565b9561042991956134d1565b9790966040519b8c9b61043c9b8d6139e5565b037ff3231fc2c70cb8661360d7866035205e0936b9345c89d534f7df03ee85ae412591a1005b346102a15761047036613205565b61047a81806134d1565b908160405192839283378101600781520360200190205461049a90613097565b15156104a590613f28565b6104af81806134d1565b82602081939401916104c183836134d1565b92909160408201966104d388846134d1565b95909460608501966104e588876134d1565b60808801986104f48a8a6134d1565b94909560a08b019a8b610506916134d1565b9890996040519b6105168d6130cf565b36906105219261326b565b8b52369061052e9261326b565b60208a0152369061053e9261326b565b6040880152369061054e9261326b565b6060860152369061055e9261326b565b6080840152369061056e9261326b565b60a082015261057d86806134d1565b908160405192839283378101600781520360200190209061059d91613552565b6105a785806134d1565b9590946105b490826134d1565b9390976105c190836134d1565b9190956105ce90846134d1565b9290916105db90856134d1565b956105e691956134d1565b9790966040519b8c9b6105f99b8d6139e5565b037f568d4f5db3bf0bfa5a5d86fcda7720365e05858952447a6848a3ecb3337eea0b91a1005b346102a15760203660031901126102a157600435600c548110156102a157600c548110156106a057600c5f527fdf6966c971051c3d54ec59162606531493a51404a002842f56009d7e5cf4a8c70161067961029d91613141565b6040519182916020835260208301906131e1565b634e487b7160e01b5f525f60045260245ffd5b634e487b7160e01b5f52603260045260245ffd5b346102a1576020806106c5366132b0565b604051928184925191829101835e810160058152030190206106e681613141565b61029d6106f560018401613141565b9261070260028201613141565b9061070f60038201613141565b610727600561072060048501613141565b9301613141565b92604051968796876132ee565b346102a1576107423661349e565b61077561076e602061075484806134d1565b919082604051938492833781015f81520301902054613097565b1515613f69565b61077f81806134d1565b9190602082019161079083826134d1565b9190946107e060408301936107d16107a886866134d1565b9990926107c8606088013599604051976107c189613105565b369161326b565b8652369161326b565b9760208401988952369161326b565b9560408201968752606082019085825260206107fc85806134d1565b919082604051938492833781015f81520301902092518051906001600160401b038211610a2257610837826108318754613097565b87613503565b602090601f8311600114610aa45761086692915f9183610a36575b50508160011b915f199060031b1c19161790565b83555b51805160018401916001600160401b038211610a22576108938261088d8554613097565b85613503565b602090601f8311600114610a41576108c192915f9183610a365750508160011b915f199060031b1c19161790565b90555b6002820196519687516001600160401b038111610a22576108ef816108e98454613097565b84613503565b6020601f8211600114610991579261098196949261094d8360039461096a9c9b99977ff41a545cf775200dfa22c781a8203cfff7a78b9f4bde188733045ab4c75a937d9e5f926109865750508160011b915f199060031b1c19161790565b90555b5191015561097261096182806134d1565b979096836134d1565b9390926134d1565b92909160405197889788613fa8565b0390a1005b015190508e80610852565b601f19821699835f52815f209a5f5b818110610a0a5750837ff41a545cf775200dfa22c781a8203cfff7a78b9f4bde188733045ab4c75a937d9c61096a9c9b9997946109819b999794600397600195106109f3575b505050811b019055610950565b01515f1983881b60f8161c191690558d80806109e6565b838301518d556001909c019b602093840193016109a0565b634e487b7160e01b5f52604160045260245ffd5b015190508b80610852565b90601f19831691845f52815f20925f5b818110610a8c5750908460019594939210610a74575b505050811b0190556108c4565b01515f1960f88460031b161c191690558a8080610a67565b92936020600181928786015181550195019301610a51565b90601f19831691865f52815f20925f5b818110610aef5750908460019594939210610ad7575b505050811b018355610869565b01515f1960f88460031b161c191690558a8080610aca565b92936020600181928786015181550195019301610ab4565b346102a1575f3660031901126102a1576020600854604051908152f35b346102a157610b323661349e565b610b41602061075483806134d1565b610f5f57610b4f81806134d1565b6020830192610b5e84826134d1565b9290610ba66040840194610b97610b7587876134d1565b949092610b8e60608901359a604051986107c18a613105565b8752369161326b565b9260208501938452369161326b565b6040830190815260608301918683526020610bc186806134d1565b919082604051938492833781015f81520301902093518051906001600160401b038211610a2257610bfc82610bf68854613097565b88613503565b602090601f8311600114610efc57610c2a92915f9183610a365750508160011b915f199060031b1c19161790565b84555b51805160018501916001600160401b038211610a2257610c518261088d8554613097565b602090601f8311600114610e9957610c7f92915f9183610a365750508160011b915f199060031b1c19161790565b90555b51805160028401916001600160401b038211610a2257610ca68261088d8554613097565b602090601f8311600114610e33579180610cd99260039695945f92610a365750508160011b915f199060031b1c19161790565b90555b51910155610cea81806134d1565b600854600160401b811015610a2257806001610d0b92016008556008613082565b92909261068d576001600160401b038211610a2257610d2e8261088d8554613097565b5f90601f8311600114610da35792610d88837f53996a5c96367875a5a6e6b664f682708cead43fdec37cb0af3b887a07bc4499999794610981979461096a9a975f92610d985750508160011b915f199060031b1c19161790565b90555b61097261096182806134d1565b013590508b80610852565b601f19831691845f5260205f20925f5b818110610e1b575093610981969361096a999693600193837f53996a5c96367875a5a6e6b664f682708cead43fdec37cb0af3b887a07bc44999d9b9810610e02575b505050811b019055610d8b565b01355f19600384901b60f8161c191690558a8080610df5565b91936020600181928787013581550195019201610db3565b90601f19831691845f52815f20925f5b818110610e81575091600193918560039897969410610e6a575b505050811b019055610cdc565b01515f1983881b60f8161c191690558a8080610e5d565b92936020600181928786015181550195019301610e43565b90601f19831691845f52815f20925f5b818110610ee45750908460019594939210610ecc575b505050811b019055610c82565b01515f1960f88460031b161c191690558a8080610ebf565b92936020600181928786015181550195019301610ea9565b90601f19831691875f52815f20925f5b818110610f475750908460019594939210610f2f575b505050811b018455610c2d565b01515f1960f88460031b161c191690558a8080610f22565b92936020600181928786015181550195019301610f0c565b60405162461bcd60e51b815260206004820152601960248201527f4661726d657220616c72656164792072656769737465726564000000000000006044820152606490fd5b346102a15761029d6110046020610fba36613392565b9190610fc4613caa565b50610fec610fe5604051858482378481878101600581520301902054613097565b1515613dcc565b82604051938492833781016005815203019020613d19565b6040519182916020835260208301906133e1565b346102a157602080611029366132b0565b604051928184925191829101835e810160068152030190206106e681613141565b346102a1575f3660031901126102a1576020600b54604051908152f35b346102a15761113a602061107a36613392565b91905f606060405161108b81613105565b818152818582015281604082015201526110ba61076e6040518584823784818781015f81520301902054613097565b82604051938492833781015f815203019020604051906110d982613105565b6110e281613141565b82526111606110f360018301613141565b916020840192835261114d600361110c60028401613141565b92604087019384520154936060860194855260405196879660208852516080602089015260a08801906131e1565b9051868203601f190160408801526131e1565b9051848203601f190160608601526131e1565b905160808301520390f35b346102a15761117936613205565b61118381806134d1565b90816040519283928337810160068152036020019020546111a390613097565b15156111ae90613e0b565b6111b881806134d1565b82602081939401916111ca83836134d1565b92909160408201966111dc88846134d1565b95909460608501966111ee88876134d1565b60808801986111fd8a8a6134d1565b94909560a08b019a8b61120f916134d1565b9890996040519b61121f8d6130cf565b369061122a9261326b565b8b5236906112379261326b565b60208a015236906112479261326b565b604088015236906112579261326b565b606086015236906112679261326b565b608084015236906112779261326b565b60a082015261128686806134d1565b90816040519283928337810160068152036020019020906112a691613552565b6112b085806134d1565b9590946112bd90826134d1565b9390976112ca90836134d1565b9190956112d790846134d1565b9290916112e490856134d1565b956112ef91956134d1565b9790966040519b8c9b6113029b8d6139e5565b037f96f5d49dc896b9ed550ae027281345d8e47f52628dbe8db1f4cb35cf46b78f6491a1005b346102a15761029d611004602061133e36613392565b9190611348613caa565b50611370611369604051858482378481878101600781520301902054613097565b1515613f28565b82604051938492833781016007815203019020613d19565b346102a1577f6b5a9760195f1dec2458886d8118e351971d7cbbf9ada08b89af8d6948e999ca61096a6114696109816114326113c336613238565b6113f061026a60206113d584806134d1565b91908260405193849283378101600481520301902054613097565b6113fa81806134d1565b60208301959161143e90610b8e61141189876134d1565b979060408801986114228a8a6134d1565b949095604051986107c18a6130ea565b6020850152369161326b565b6040820152602061144f84806134d1565b919082604051938492833781016004815203019020613a59565b61147f61147682806134d1565b969095836134d1565b92909160405196879687613c70565b346102a1575f3660031901126102a1576020600954604051908152f35b346102a15761029d61028960206114c136613392565b91906114cb613e90565b506114f36114ec604051858482378481878101600181520301902054613097565b1515613e4e565b82604051938492833781016001815203019020613eaf565b346102a1575f3660031901126102a1576020600c54604051908152f35b346102a1577f4cfd5162b34db9cf8250cdcab8f3a56f43b714f3ed68d1697ab0d370617ffa4761096a61146961098161143261156336613238565b6115906114ec602061157584806134d1565b91908260405193849283378101600181520301902054613097565b61159a81806134d1565b6020830195916115b190610b8e61141189876134d1565b604082015260206115c284806134d1565b919082604051938492833781016001815203019020613a59565b346102a1576020806115ed366132b0565b604051928184925191829101835e8101600181520301902061160e81613141565b61029d611629600261162260018601613141565b9401613141565b6040519384938461335b565b346102a15760203660031901126102a157600435600d548110156102a157600d548110156106a057600d5f527fd7b6990105719101dabeb77144f2a3385c8033acd3af97e9423a695e81ad1eb50161067961029d91613141565b346102a15761029d61100460206116a536613392565b91906116af613caa565b506116d76116d0604051858482378481878101600681520301902054613097565b1515613e0b565b82604051938492833781016006815203019020613d19565b346102a1576116fd36613205565b611727602061170c83806134d1565b91908260405193849283378101600681520301902054613097565b6119cb5761173581806134d1565b6020839293019161174683826134d1565b6040839293019361175785846134d1565b97909260608501986117698a876134d1565b9590608088019661177a888a6134d1565b93909460a08b019b61178c8d8d6134d1565b9890996040519b61179c8d6130cf565b36906117a79261326b565b8b5236906117b49261326b565b60208a015236906117c49261326b565b604088015236906117d49261326b565b606086015236906117e49261326b565b608084015236906117f49261326b565b60a082015261180383806134d1565b908160405192839283378101600681520360200190209061182391613552565b61182d82806134d1565b600e97919754600160401b811015610a22578060016118519201600e55600e613082565b91909161068d576001600160401b038111610a2257611874816108e98454613097565b5f98601f821160011461192f579361190461098197946118fb97946118d98561190d967faadda932d7da91d8176b8327287c558192eb0c454b72dcdb7a31bcca1467de989f6118f29f9e9b5f926119245750508160011b915f199060031b1c19161790565b90555b6119156118e986806134d1565b9c909b876134d1565b999098876134d1565b939092876134d1565b959094876134d1565b9790966134d1565b9890976040519c8d9c8d6139e5565b013590505f80610852565b98601f19821690835f5260205f20915f5b8181106119b35750946118fb97946001856118f29d9c99957faadda932d7da91d8176b8327287c558192eb0c454b72dcdb7a31bcca1467de989f6119049661190d996109819f9c1061199a575b505050811b0190556118dc565b01355f19600384901b60f8161c191690558f808061198d565b91926020600181928f87013581550194019201611940565b60405162461bcd60e51b815260206004820152601d60248201527f416e696d616c466f6f6420616c726561647920726567697374657265640000006044820152606490fd5b346102a157611a1e36613205565b611a2881806134d1565b9081604051928392833781016005815203602001902054611a4890613097565b1515611a5390613dcc565b611a5d81806134d1565b8260208193940191611a6f83836134d1565b9290916040820196611a8188846134d1565b9590946060850196611a9388876134d1565b6080880198611aa28a8a6134d1565b94909560a08b019a8b611ab4916134d1565b9890996040519b611ac48d6130cf565b3690611acf9261326b565b8b523690611adc9261326b565b60208a01523690611aec9261326b565b60408801523690611afc9261326b565b60608601523690611b0c9261326b565b60808401523690611b1c9261326b565b60a0820152611b2b86806134d1565b9081604051928392833781016005815203602001902090611b4b91613552565b611b5585806134d1565b959094611b6290826134d1565b939097611b6f90836134d1565b919095611b7c90846134d1565b929091611b8990856134d1565b95611b9491956134d1565b9790966040519b8c9b611ba79b8d6139e5565b037f1871c200859b826b5204f1e24d257fc6a9cb6ece9b988b3cee2b005e7429493b91a1005b346102a15761029d6110046020611be336613392565b9190611bed613caa565b50611c15611c0e604051858482378481878101600381520301902054613097565b1515613d89565b82604051938492833781016003815203019020613d19565b346102a15760203660031901126102a157600435600b548110156102a157600b548110156106a057600b5f527f0175b7a638427703f0dbe7bb9bbf987a2551717b34e79f33b5b1008d1fa01db90161067961029d91613141565b346102a157611c9536613205565b611c9f81806134d1565b9081604051928392833781016003815203602001902054611cbf90613097565b1515611cca90613d89565b611cd481806134d1565b8260208193940191611ce683836134d1565b9290916040820196611cf888846134d1565b9590946060850196611d0a88876134d1565b6080880198611d198a8a6134d1565b94909560a08b019a8b611d2b916134d1565b9890996040519b611d3b8d6130cf565b3690611d469261326b565b8b523690611d539261326b565b60208a01523690611d639261326b565b60408801523690611d739261326b565b60608601523690611d839261326b565b60808401523690611d939261326b565b60a0820152611da286806134d1565b9081604051928392833781016003815203602001902090611dc291613552565b611dcc85806134d1565b959094611dd990826134d1565b939097611de690836134d1565b919095611df390846134d1565b929091611e0090856134d1565b95611e0b91956134d1565b9790966040519b8c9b611e1e9b8d6139e5565b037f67ffd62db438f8c77e8ea4631e0f5957c33a4506d4e6fa5ed41b2eddc294fcb091a1005b346102a157611eb2602080611e58366132b0565b604051928184925191829101835e81015f815203019020611e7881613141565b90611ece611e8860018301613141565b91611ec06003611e9a60028401613141565b920154936040519687966080885260808801906131e1565b9086820360208801526131e1565b9084820360408601526131e1565b9060608301520390f35b346102a157602080611ee9366132b0565b604051928184925191829101835e810160078152030190206106e681613141565b346102a1575f3660031901126102a1576020600d54604051908152f35b346102a15760203660031901126102a1576004356008548110156102a1576008548110156106a05760085f527ff3f7a9fe364faab93b216da50a3214154f22a0a2b415b23a84c8169e8b636ee30161067961029d91613141565b346102a15760203660031901126102a157600435600a548110156102a157600a548110156106a057600a5f527fc65a7bb8d6351c1cf70c95a316cc6a92839c986682d98bc35f958f4883f9d2a80161067961029d91613141565b346102a15761029d6110046020611ff136613392565b9190611ffb613caa565b5061202361201c604051858482378481878101600281520301902054613097565b1515613cda565b82604051938492833781016002815203019020613d19565b346102a15760208061204c366132b0565b604051928184925191829101835e8101600481520301902061160e81613141565b346102a15761207b36613205565b6120a5602061208a83806134d1565b91908260405193849283378101600581520301902054613097565b6122d9576120b381806134d1565b602083929301916120c483826134d1565b604083929301936120d585846134d1565b97909260608501986120e78a876134d1565b959060808801966120f8888a6134d1565b93909460a08b019b61210a8d8d6134d1565b9890996040519b61211a8d6130cf565b36906121259261326b565b8b5236906121329261326b565b60208a015236906121429261326b565b604088015236906121529261326b565b606086015236906121629261326b565b608084015236906121729261326b565b60a082015261218183806134d1565b90816040519283928337810160058152036020019020906121a191613552565b6121ab82806134d1565b600d97919754600160401b811015610a22578060016121cf9201600d55600d613082565b91909161068d576001600160401b038111610a22576121f2816108e98454613097565b5f98601f8211600114612257579361190461098197946118fb97946118d98561190d967f8bb633a7ec125f2185fd7a6c196113f2572f41797ec7c7eb077f64caa1e1fe429f6118f29f9e9b5f926119245750508160011b915f199060031b1c19161790565b98601f19821690835f5260205f20915f5b8181106122c15750946118fb97946001856118f29d9c99957f8bb633a7ec125f2185fd7a6c196113f2572f41797ec7c7eb077f64caa1e1fe429f6119049661190d996109819f9c1061199a57505050811b0190556118dc565b91926020600181928f87013581550194019201612268565b60405162461bcd60e51b815260206004820152601960248201527f42726577657220616c72656164792072656769737465726564000000000000006044820152606490fd5b346102a15760208061232f366132b0565b604051928184925191829101835e810160028152030190206106e681613141565b346102a15760203660031901126102a157600435600e548110156102a157600e548110156106a057600e5f527fbb7b4a454dc3493923482f07822329ed19e8244eff582cc204f8554c3620c3fd0161067961029d91613141565b346102a1575f3660031901126102a1576020600a54604051908152f35b346102a1576123d536613238565b6123e4602061157583806134d1565b61256057611432816123f981612410946134d1565b6020830194916115b190610b8e61141188876134d1565b61241a81806134d1565b600a54600160401b811015610a225780600161243b9201600a55600a613082565b92909261068d576001600160401b038211610a225761245e8261088d8554613097565b5f90601f83116001146124d157926124b78361096a97947f8689b71f536f395d8b04471a8f46974f4c1743d247ee4356094db809015b821c999794610981975f926124c65750508160011b915f199060031b1c19161790565b905561147f61147682806134d1565b013590508a80610852565b601f19831691845f5260205f20925f5b8181106125485750937f8689b71f536f395d8b04471a8f46974f4c1743d247ee4356094db809015b821c98969361098196936001938361096a9b981061252f575b505050811b019055611469565b01355f19600384901b60f8161c19169055898080612522565b919360206001819287870135815501950192016124e1565b60405162461bcd60e51b815260206004820152601c60248201527f436f6c6c6563746f7220616c72656164792072656769737465726564000000006044820152606490fd5b346102a1576020806125b6366132b0565b604051928184925191829101835e810160038152030190206106e681613141565b346102a15760203660031901126102a157600435600f548110156102a157600f548110156106a057600f5f527f8d1108e10bcb7c27dddfc02ed9d693a074039d026cf4ea4240b40f7d581ac8020161067961029d91613141565b346102a15761263f36613205565b612669602061264e83806134d1565b91908260405193849283378101600381520301902054613097565b61289d5761267781806134d1565b6020839293019161268883826134d1565b6040839293019361269985846134d1565b97909260608501986126ab8a876134d1565b959060808801966126bc888a6134d1565b93909460a08b019b6126ce8d8d6134d1565b9890996040519b6126de8d6130cf565b36906126e99261326b565b8b5236906126f69261326b565b60208a015236906127069261326b565b604088015236906127169261326b565b606086015236906127269261326b565b608084015236906127369261326b565b60a082015261274583806134d1565b908160405192839283378101600381520360200190209061276591613552565b61276f82806134d1565b600b97919754600160401b811015610a22578060016127939201600b55600b613082565b91909161068d576001600160401b038111610a22576127b6816108e98454613097565b5f98601f821160011461281b579361190461098197946118fb97946118d98561190d967f053bb37f29d796f9131fd903e3a7693b6ac07da6cbcdf9b3927c65a93b93b1359f6118f29f9e9b5f926119245750508160011b915f199060031b1c19161790565b98601f19821690835f5260205f20915f5b8181106128855750946118fb97946001856118f29d9c99957f053bb37f29d796f9131fd903e3a7693b6ac07da6cbcdf9b3927c65a93b93b1359f6119049661190d996109819f9c1061199a57505050811b0190556118dc565b91926020600181928f8701358155019401920161282c565b60405162461bcd60e51b815260206004820152601d60248201527f57686f6c6573616c657220616c726561647920726567697374657265640000006044820152606490fd5b346102a1576128f036613238565b6128ff60206113d583806134d1565b612a4757611432816129148161292b946134d1565b60208301949161143e90610b8e61141188876134d1565b61293581806134d1565b600c54600160401b811015610a22578060016129569201600c55600c613082565b92909261068d576001600160401b038211610a22576129798261088d8554613097565b5f90601f83116001146129d257926124b78361096a97947f2986462e86647ac564b1c89c3c4873f6249af112062ab1fa845bf9908604b079999794610981975f926124c65750508160011b915f199060031b1c19161790565b601f19831691845f5260205f20925f5b818110612a2f5750937f2986462e86647ac564b1c89c3c4873f6249af112062ab1fa845bf9908604b07998969361098196936001938361096a9b981061252f57505050811b019055611469565b919360206001819287870135815501950192016129e2565b60405162461bcd60e51b815260206004820152601b60248201527f52657461696c657220616c7265616479207265676973746572656400000000006044820152606490fd5b346102a157612a9a36613205565b612ac46020612aa983806134d1565b91908260405193849283378101600781520301902054613097565b612cf857612ad281806134d1565b60208392930191612ae383826134d1565b60408392930193612af485846134d1565b9790926060850198612b068a876134d1565b95906080880196612b17888a6134d1565b93909460a08b019b612b298d8d6134d1565b9890996040519b612b398d6130cf565b3690612b449261326b565b8b523690612b519261326b565b60208a01523690612b619261326b565b60408801523690612b719261326b565b60608601523690612b819261326b565b60808401523690612b919261326b565b60a0820152612ba083806134d1565b9081604051928392833781016007815203602001902090612bc091613552565b612bca82806134d1565b600f97919754600160401b811015610a2257806001612bee9201600f55600f613082565b91909161068d576001600160401b038111610a2257612c11816108e98454613097565b5f98601f8211600114612c76579361190461098197946118fb97946118d98561190d967f8b27dc553408b28068949f2ae999ea2719a7b5bfd88cc531287e621ea5b2dd099f6118f29f9e9b5f926119245750508160011b915f199060031b1c19161790565b98601f19821690835f5260205f20915f5b818110612ce05750946118fb97946001856118f29d9c99957f8b27dc553408b28068949f2ae999ea2719a7b5bfd88cc531287e621ea5b2dd099f6119049661190d996109819f9c1061199a57505050811b0190556118dc565b91926020600181928f87013581550194019201612c87565b60405162461bcd60e51b815260206004820152601b60248201527f4578706f7274657220616c7265616479207265676973746572656400000000006044820152606490fd5b346102a1575f3660031901126102a1576020600e54604051908152f35b346102a157612d6836613205565b612d926020612d7783806134d1565b91908260405193849283378101600281520301902054613097565b612fc657612da081806134d1565b60208392930191612db183826134d1565b60408392930193612dc285846134d1565b9790926060850198612dd48a876134d1565b95906080880196612de5888a6134d1565b93909460a08b019b612df78d8d6134d1565b9890996040519b612e078d6130cf565b3690612e129261326b565b8b523690612e1f9261326b565b60208a01523690612e2f9261326b565b60408801523690612e3f9261326b565b60608601523690612e4f9261326b565b60808401523690612e5f9261326b565b60a0820152612e6e83806134d1565b9081604051928392833781016002815203602001902090612e8e91613552565b612e9882806134d1565b600997919754600160401b811015610a2257806001612ebc92016009556009613082565b91909161068d576001600160401b038111610a2257612edf816108e98454613097565b5f98601f8211600114612f44579361190461098197946118fb97946118d98561190d967fc4fd9b7257693186fa3e36ed0aa9bf51aa4b34acd7ab95ada42a4a84db95c0949f6118f29f9e9b5f926119245750508160011b915f199060031b1c19161790565b98601f19821690835f5260205f20915f5b818110612fae5750946118fb97946001856118f29d9c99957fc4fd9b7257693186fa3e36ed0aa9bf51aa4b34acd7ab95ada42a4a84db95c0949f6119049661190d996109819f9c1061199a57505050811b0190556118dc565b91926020600181928f87013581550194019201612f55565b60405162461bcd60e51b815260206004820152601960248201527f4d696c6c657220616c72656164792072656769737465726564000000000000006044820152606490fd5b346102a1575f3660031901126102a1576020600f54604051908152f35b346102a15760203660031901126102a1576004356009548110156102a1576009548110156106a05760095f527f6e1540171b6c0c960b71a7020d9f60077f6af931a8bbf590da0223dacf75c7af0161067961029d91613141565b80548210156106a0575f5260205f2001905f90565b90600182811c921680156130c5575b60208310146130b157565b634e487b7160e01b5f52602260045260245ffd5b91607f16916130a6565b60c081019081106001600160401b03821117610a2257604052565b606081019081106001600160401b03821117610a2257604052565b608081019081106001600160401b03821117610a2257604052565b90601f801991011681019081106001600160401b03821117610a2257604052565b9060405191825f82549261315484613097565b80845293600181169081156131bf575060011461317b575b5061317992500383613120565b565b90505f9291925260205f20905f915b8183106131a3575050906020613179928201015f61316c565b602091935080600191548385890101520191019091849261318a565b90506020925061317994915060ff191682840152151560051b8201015f61316c565b805180835260209291819084018484015e5f828201840152601f01601f1916010190565b60206003198201126102a157600435906001600160401b0382116102a15760c09082900360031901126102a15760040190565b60206003198201126102a157600435906001600160401b0382116102a15760609082900360031901126102a15760040190565b9291926001600160401b038211610a225760405191613294601f8201601f191660200184613120565b8294818452818301116102a1578281602093845f960137010152565b60206003198201126102a157600435906001600160401b0382116102a157806023830112156102a1578160246132eb9360040135910161326b565b90565b94919361333161334d946133236132eb999761331561333f9660c08c5260c08c01906131e1565b908a820360208c01526131e1565b9088820360408a01526131e1565b9086820360608801526131e1565b9084820360808601526131e1565b9160a08184039101526131e1565b91613384906133766132eb95936060865260608601906131e1565b9084820360208601526131e1565b9160408184039101526131e1565b9060206003198301126102a1576004356001600160401b0381116102a157826023820112156102a1578060040135926001600160401b0384116102a157602484830101116102a1576024019190565b6132eb9160a061344e61343c61342a613418613406875160c0885260c08801906131e1565b602088015187820360208901526131e1565b604087015186820360408801526131e1565b606086015185820360608701526131e1565b608085015184820360808601526131e1565b9201519060a08184039101526131e1565b6132eb91604061348d61347b84516060855260608501906131e1565b602085015184820360208601526131e1565b9201519060408184039101526131e1565b60206003198201126102a157600435906001600160401b0382116102a15760809082900360031901126102a15760040190565b903590601e19813603018212156102a157018035906001600160401b0382116102a1576020019181360383136102a157565b601f821161351057505050565b5f5260205f20906020601f840160051c83019310613548575b601f0160051c01905b81811061353d575050565b5f8155600101613532565b9091508190613529565b9181519283516001600160401b038111610a2257613574816108e98454613097565b602094601f8211600114613964576135a59293949582915f926137695750508160011b915f199060031b1c19161790565b81555b6001810160208401518051906001600160401b038211610a22576135d08261088d8554613097565b602090601f8311600114613901576135fe92915f91836137695750508160011b915f199060031b1c19161790565b90555b6002810160408401518051906001600160401b038211610a22576136298261088d8554613097565b602090601f831160011461389e5761365792915f91836137695750508160011b915f199060031b1c19161790565b90555b6003810160608401518051906001600160401b038211610a22576136828261088d8554613097565b602090601f831160011461383b576136b092915f91836137695750508160011b915f199060031b1c19161790565b90555b6004810160808401518051906001600160401b038211610a22576136db8261088d8554613097565b602090601f83116001146137d2578260a0959360059593613710935f926137695750508160011b915f199060031b1c19161790565b90555b019201519182516001600160401b038111610a2257613736816108e98454613097565b6020601f82116001146137745781906137659394955f926137695750508160011b915f199060031b1c19161790565b9055565b015190505f80610852565b601f19821690835f52805f20915f5b8181106137ba575095836001959697106137a2575b505050811b019055565b01515f1960f88460031b161c191690555f8080613798565b9192602060018192868b015181550194019201613783565b90601f19831691845f52815f20925f5b818110613823575092600192859260a09896600598961061380b575b505050811b019055613713565b01515f1960f88460031b161c191690555f80806137fe565b929360206001819287860151815501950193016137e2565b90601f19831691845f52815f20925f5b818110613886575090846001959493921061386e575b505050811b0190556136b3565b01515f1960f88460031b161c191690555f8080613861565b9293602060018192878601518155019501930161384b565b90601f19831691845f52815f20925f5b8181106138e957509084600195949392106138d1575b505050811b01905561365a565b01515f1960f88460031b161c191690555f80806138c4565b929360206001819287860151815501950193016138ae565b90601f19831691845f52815f20925f5b81811061394c5750908460019594939210613934575b505050811b019055613601565b01515f1960f88460031b161c191690555f8080613927565b92936020600181928786015181550195019301613911565b601f19821695835f52805f20915f5b8881106139ad57508360019596979810613995575b505050811b0181556135a8565b01515f1960f88460031b161c191690555f8080613988565b91926020600181928685015181550194019201613973565b908060209392818452848401375f828201840152601f01601f1916010190565b9a98969395613a218c6132eb9e9c98613a4b9b96613a13613a3d9a96613a2f9860c0865260c08601916139c5565b9260208185039101526139c5565b8c810360408e0152916139c5565b9189830360608b01526139c5565b9186830360808801526139c5565b9260a08185039101526139c5565b9181519283516001600160401b038111610a2257613a7b816108e98454613097565b602094601f8211600114613c0f57613aac9293949582915f926137695750508160011b915f199060031b1c19161790565b81555b6001810160208401518051906001600160401b038211610a2257613ad78261088d8554613097565b602090601f8311600114613ba657826040959360029593613b0c935f926137695750508160011b915f199060031b1c19161790565b90555b019201519182516001600160401b038111610a2257613b32816108e98454613097565b6020601f8211600114613b615781906137659394955f926137695750508160011b915f199060031b1c19161790565b601f19821690835f52805f20915f5b818110613b8e575095836001959697106137a257505050811b019055565b9192602060018192868b015181550194019201613b70565b90601f19831691845f52815f20925f5b818110613bf75750926001928592604098966002989610613bdf575b505050811b019055613b0f565b01515f1960f88460031b161c191690555f8080613bd2565b92936020600181928786015181550195019301613bb6565b601f19821695835f52805f20915f5b888110613c5857508360019596979810613c40575b505050811b018155613aaf565b01515f1960f88460031b161c191690555f8080613c33565b91926020600181928685015181550194019201613c1e565b94929093613c8e6132eb9795613c9c946060895260608901916139c5565b9186830360208801526139c5565b9260408185039101526139c5565b60405190613cb7826130cf565b606060a08382815282602082015282604082015282808201528260808201520152565b15613ce157565b60405162461bcd60e51b815260206004820152601060248201526f135a5b1b195c881b9bdd08199bdd5b9960821b6044820152606490fd5b90604051613d26816130cf565b60a0613d8460058395613d3881613141565b8552613d4660018201613141565b6020860152613d5760028201613141565b6040860152613d6860038201613141565b6060860152613d7960048201613141565b608086015201613141565b910152565b15613d9057565b60405162461bcd60e51b815260206004820152601460248201527315da1bdb195cd85b195c881b9bdd08199bdd5b9960621b6044820152606490fd5b15613dd357565b60405162461bcd60e51b815260206004820152601060248201526f109c995dd95c881b9bdd08199bdd5b9960821b6044820152606490fd5b15613e1257565b60405162461bcd60e51b8152602060048201526014602482015273105b9a5b585b119bdbd9081b9bdd08199bdd5b9960621b6044820152606490fd5b15613e5557565b60405162461bcd60e51b815260206004820152601360248201527210dbdb1b1958dd1bdc881b9bdd08199bdd5b99606a1b6044820152606490fd5b60405190613e9d826130ea565b60606040838281528260208201520152565b90604051613ebc816130ea565b6040613d8460028395613ece81613141565b8552613edc60018201613141565b602086015201613141565b15613eee57565b60405162461bcd60e51b815260206004820152601260248201527114995d185a5b195c881b9bdd08199bdd5b9960721b6044820152606490fd5b15613f2f57565b60405162461bcd60e51b8152602060048201526012602482015271115e1c1bdc9d195c881b9bdd08199bdd5b9960721b6044820152606490fd5b15613f7057565b60405162461bcd60e51b815260206004820152601060248201526f11985c9b595c881b9bdd08199bdd5b9960821b6044820152606490fd5b9796959192613fe694613fca613fd8936060989660808d5260808d01916139c5565b918a830360208c01526139c5565b9187830360408901526139c5565b93015256fea26469706673582212202837ddb6d1ebbe3f79ff4160b3af56d34d425e1d069ca6e174cc381c224a759564736f6c634300081c0033",
  "linkReferences": {},
  "deployedLinkReferences": {},
  "immutableReferences": {},
  "inputSourceName": "project/contracts/UserAccounts.sol",
  "buildInfoId": "solc-0_8_28-97210356adb786eacedc5bffd2491ce8f0c7d25e"
}